{
  "_format": "hh-sol-artifact-1",
  "contractName": "PROSPERA",
  "sourceName": "contracts/PROSPERA.sol",
  "abi": [
    {
      "inputs": [],
      "stateMutability": "nonpayable",
      "type": "constructor"
    },
    {
      "inputs": [
        {
          "internalType": "address",
          "name": "spender",
          "type": "address"
        },
        {
          "internalType": "uint256",
          "name": "allowance",
          "type": "uint256"
        },
        {
          "internalType": "uint256",
          "name": "needed",
          "type": "uint256"
        }
      ],
      "name": "ERC20InsufficientAllowance",
      "type": "error"
    },
    {
      "inputs": [
        {
          "internalType": "address",
          "name": "sender",
          "type": "address"
        },
        {
          "internalType": "uint256",
          "name": "balance",
          "type": "uint256"
        },
        {
          "internalType": "uint256",
          "name": "needed",
          "type": "uint256"
        }
      ],
      "name": "ERC20InsufficientBalance",
      "type": "error"
    },
    {
      "inputs": [
        {
          "internalType": "address",
          "name": "approver",
          "type": "address"
        }
      ],
      "name": "ERC20InvalidApprover",
      "type": "error"
    },
    {
      "inputs": [
        {
          "internalType": "address",
          "name": "receiver",
          "type": "address"
        }
      ],
      "name": "ERC20InvalidReceiver",
      "type": "error"
    },
    {
      "inputs": [
        {
          "internalType": "address",
          "name": "sender",
          "type": "address"
        }
      ],
      "name": "ERC20InvalidSender",
      "type": "error"
    },
    {
      "inputs": [
        {
          "internalType": "address",
          "name": "spender",
          "type": "address"
        }
      ],
      "name": "ERC20InvalidSpender",
      "type": "error"
    },
    {
      "inputs": [
        {
          "internalType": "address",
          "name": "owner",
          "type": "address"
        }
      ],
      "name": "OwnableInvalidOwner",
      "type": "error"
    },
    {
      "inputs": [
        {
          "internalType": "address",
          "name": "account",
          "type": "address"
        }
      ],
      "name": "OwnableUnauthorizedAccount",
      "type": "error"
    },
    {
      "anonymous": false,
      "inputs": [
        {
          "indexed": true,
          "internalType": "address",
          "name": "owner",
          "type": "address"
        },
        {
          "indexed": true,
          "internalType": "address",
          "name": "spender",
          "type": "address"
        },
        {
          "indexed": false,
          "internalType": "uint256",
          "name": "value",
          "type": "uint256"
        }
      ],
      "name": "Approval",
      "type": "event"
    },
    {
      "anonymous": false,
      "inputs": [
        {
          "indexed": true,
          "internalType": "address",
          "name": "previousOwner",
          "type": "address"
        },
        {
          "indexed": true,
          "internalType": "address",
          "name": "newOwner",
          "type": "address"
        }
      ],
      "name": "OwnershipTransferred",
      "type": "event"
    },
    {
      "anonymous": false,
      "inputs": [
        {
          "indexed": true,
          "internalType": "address",
          "name": "from",
          "type": "address"
        },
        {
          "indexed": true,
          "internalType": "address",
          "name": "to",
          "type": "address"
        },
        {
          "indexed": false,
          "internalType": "uint256",
          "name": "value",
          "type": "uint256"
        }
      ],
      "name": "Transfer",
      "type": "event"
    },
    {
      "inputs": [
        {
          "internalType": "address",
          "name": "owner",
          "type": "address"
        },
        {
          "internalType": "address",
          "name": "spender",
          "type": "address"
        }
      ],
      "name": "allowance",
      "outputs": [
        {
          "internalType": "uint256",
          "name": "",
          "type": "uint256"
        }
      ],
      "stateMutability": "view",
      "type": "function"
    },
    {
      "inputs": [
        {
          "internalType": "address",
          "name": "spender",
          "type": "address"
        },
        {
          "internalType": "uint256",
          "name": "value",
          "type": "uint256"
        }
      ],
      "name": "approve",
      "outputs": [
        {
          "internalType": "bool",
          "name": "",
          "type": "bool"
        }
      ],
      "stateMutability": "nonpayable",
      "type": "function"
    },
    {
      "inputs": [
        {
          "internalType": "address",
          "name": "account",
          "type": "address"
        }
      ],
      "name": "balanceOf",
      "outputs": [
        {
          "internalType": "uint256",
          "name": "",
          "type": "uint256"
        }
      ],
      "stateMutability": "view",
      "type": "function"
    },
    {
      "inputs": [
        {
          "internalType": "uint256",
          "name": "amount",
          "type": "uint256"
        }
      ],
      "name": "burn",
      "outputs": [],
      "stateMutability": "nonpayable",
      "type": "function"
    },
    {
      "inputs": [],
      "name": "decimals",
      "outputs": [
        {
          "internalType": "uint8",
          "name": "",
          "type": "uint8"
        }
      ],
      "stateMutability": "view",
      "type": "function"
    },
    {
      "inputs": [],
      "name": "name",
      "outputs": [
        {
          "internalType": "string",
          "name": "",
          "type": "string"
        }
      ],
      "stateMutability": "view",
      "type": "function"
    },
    {
      "inputs": [],
      "name": "owner",
      "outputs": [
        {
          "internalType": "address",
          "name": "",
          "type": "address"
        }
      ],
      "stateMutability": "view",
      "type": "function"
    },
    {
      "inputs": [],
      "name": "renounceOwnership",
      "outputs": [],
      "stateMutability": "nonpayable",
      "type": "function"
    },
    {
      "inputs": [],
      "name": "symbol",
      "outputs": [
        {
          "internalType": "string",
          "name": "",
          "type": "string"
        }
      ],
      "stateMutability": "view",
      "type": "function"
    },
    {
      "inputs": [],
      "name": "totalSupply",
      "outputs": [
        {
          "internalType": "uint256",
          "name": "",
          "type": "uint256"
        }
      ],
      "stateMutability": "view",
      "type": "function"
    },
    {
      "inputs": [
        {
          "internalType": "address",
          "name": "to",
          "type": "address"
        },
        {
          "internalType": "uint256",
          "name": "value",
          "type": "uint256"
        }
      ],
      "name": "transfer",
      "outputs": [
        {
          "internalType": "bool",
          "name": "",
          "type": "bool"
        }
      ],
      "stateMutability": "nonpayable",
      "type": "function"
    },
    {
      "inputs": [
        {
          "internalType": "address",
          "name": "from",
          "type": "address"
        },
        {
          "internalType": "address",
          "name": "to",
          "type": "address"
        },
        {
          "internalType": "uint256",
          "name": "value",
          "type": "uint256"
        }
      ],
      "name": "transferFrom",
      "outputs": [
        {
          "internalType": "bool",
          "name": "",
          "type": "bool"
        }
      ],
      "stateMutability": "nonpayable",
      "type": "function"
    },
    {
      "inputs": [
        {
          "internalType": "address",
          "name": "newOwner",
          "type": "address"
        }
      ],
      "name": "transferOwnership",
      "outputs": [],
      "stateMutability": "nonpayable",
      "type": "function"
    }
  ],
  "bytecode": "0x60806040523480156200001157600080fd5b50336040518060400160405280600881526020017f50524f53504552410000000000000000000000000000000000000000000000008152506040518060400160405280600481526020017f50524f5000000000000000000000000000000000000000000000000000000000815250816003908162000090919062000778565b508060049081620000a2919062000778565b505050600073ffffffffffffffffffffffffffffffffffffffff168173ffffffffffffffffffffffffffffffffffffffff16036200011a5760006040517f1e4fbdf7000000000000000000000000000000000000000000000000000000008152600401620001119190620008a4565b60405180910390fd5b6200012b816200017260201b60201c565b506200016c33620001416200023860201b60201c565b600a6200014f919062000a51565b6307270e0062000160919062000aa2565b6200024160201b60201c565b62000b93565b6000600560009054906101000a900473ffffffffffffffffffffffffffffffffffffffff16905081600560006101000a81548173ffffffffffffffffffffffffffffffffffffffff021916908373ffffffffffffffffffffffffffffffffffffffff1602179055508173ffffffffffffffffffffffffffffffffffffffff168173ffffffffffffffffffffffffffffffffffffffff167f8be0079c531659141344cd1fd0a4f28419497f9722a3daafe3b4186f6b6457e060405160405180910390a35050565b60006012905090565b600073ffffffffffffffffffffffffffffffffffffffff168273ffffffffffffffffffffffffffffffffffffffff1603620002b65760006040517fec442f05000000000000000000000000000000000000000000000000000000008152600401620002ad9190620008a4565b60405180910390fd5b620002ca60008383620002ce60201b60201c565b5050565b600073ffffffffffffffffffffffffffffffffffffffff168373ffffffffffffffffffffffffffffffffffffffff16036200032457806002600082825462000317919062000aed565b92505081905550620003fa565b60008060008573ffffffffffffffffffffffffffffffffffffffff1673ffffffffffffffffffffffffffffffffffffffff16815260200190815260200160002054905081811015620003b3578381836040517fe450d38c000000000000000000000000000000000000000000000000000000008152600401620003aa9392919062000b39565b60405180910390fd5b8181036000808673ffffffffffffffffffffffffffffffffffffffff1673ffffffffffffffffffffffffffffffffffffffff16815260200190815260200160002081905550505b600073ffffffffffffffffffffffffffffffffffffffff168273ffffffffffffffffffffffffffffffffffffffff160362000445578060026000828254039250508190555062000492565b806000808473ffffffffffffffffffffffffffffffffffffffff1673ffffffffffffffffffffffffffffffffffffffff168152602001908152602001600020600082825401925050819055505b8173ffffffffffffffffffffffffffffffffffffffff168373ffffffffffffffffffffffffffffffffffffffff167fddf252ad1be2c89b69c2b068fc378daa952ba7f163c4a11628f55a4df523b3ef83604051620004f1919062000b76565b60405180910390a3505050565b600081519050919050565b7f4e487b7100000000000000000000000000000000000000000000000000000000600052604160045260246000fd5b7f4e487b7100000000000000000000000000000000000000000000000000000000600052602260045260246000fd5b600060028204905060018216806200058057607f821691505b60208210810362000596576200059562000538565b5b50919050565b60008190508160005260206000209050919050565b60006020601f8301049050919050565b600082821b905092915050565b600060088302620006007fffffffffffffffffffffffffffffffffffffffffffffffffffffffffffffffff82620005c1565b6200060c8683620005c1565b95508019841693508086168417925050509392505050565b6000819050919050565b6000819050919050565b600062000659620006536200064d8462000624565b6200062e565b62000624565b9050919050565b6000819050919050565b620006758362000638565b6200068d620006848262000660565b848454620005ce565b825550505050565b600090565b620006a462000695565b620006b18184846200066a565b505050565b5b81811015620006d957620006cd6000826200069a565b600181019050620006b7565b5050565b601f8211156200072857620006f2816200059c565b620006fd84620005b1565b810160208510156200070d578190505b620007256200071c85620005b1565b830182620006b6565b50505b505050565b600082821c905092915050565b60006200074d600019846008026200072d565b1980831691505092915050565b60006200076883836200073a565b9150826002028217905092915050565b6200078382620004fe565b67ffffffffffffffff8111156200079f576200079e62000509565b5b620007ab825462000567565b620007b8828285620006dd565b600060209050601f831160018114620007f05760008415620007db578287015190505b620007e785826200075a565b86555062000857565b601f19841662000800866200059c565b60005b828110156200082a5784890151825560018201915060208501945060208101905062000803565b868310156200084a578489015162000846601f8916826200073a565b8355505b6001600288020188555050505b505050505050565b600073ffffffffffffffffffffffffffffffffffffffff82169050919050565b60006200088c826200085f565b9050919050565b6200089e816200087f565b82525050565b6000602082019050620008bb600083018462000893565b92915050565b7f4e487b7100000000000000000000000000000000000000000000000000000000600052601160045260246000fd5b60008160011c9050919050565b6000808291508390505b60018511156200094f57808604811115620009275762000926620008c1565b5b6001851615620009375780820291505b80810290506200094785620008f0565b945062000907565b94509492505050565b6000826200096a576001905062000a3d565b816200097a576000905062000a3d565b81600181146200099357600281146200099e57620009d4565b600191505062000a3d565b60ff841115620009b357620009b2620008c1565b5b8360020a915084821115620009cd57620009cc620008c1565b5b5062000a3d565b5060208310610133831016604e8410600b841016171562000a0e5782820a90508381111562000a085762000a07620008c1565b5b62000a3d565b62000a1d8484846001620008fd565b9250905081840481111562000a375762000a36620008c1565b5b81810290505b9392505050565b600060ff82169050919050565b600062000a5e8262000624565b915062000a6b8362000a44565b925062000a9a7fffffffffffffffffffffffffffffffffffffffffffffffffffffffffffffffff848462000958565b905092915050565b600062000aaf8262000624565b915062000abc8362000624565b925082820262000acc8162000624565b9150828204841483151762000ae65762000ae5620008c1565b5b5092915050565b600062000afa8262000624565b915062000b078362000624565b925082820190508082111562000b225762000b21620008c1565b5b92915050565b62000b338162000624565b82525050565b600060608201905062000b50600083018662000893565b62000b5f602083018562000b28565b62000b6e604083018462000b28565b949350505050565b600060208201905062000b8d600083018462000b28565b92915050565b61124d8062000ba36000396000f3fe608060405234801561001057600080fd5b50600436106100cf5760003560e01c806370a082311161008c57806395d89b411161006657806395d89b4114610202578063a9059cbb14610220578063dd62ed3e14610250578063f2fde38b14610280576100cf565b806370a08231146101aa578063715018a6146101da5780638da5cb5b146101e4576100cf565b806306fdde03146100d4578063095ea7b3146100f257806318160ddd1461012257806323b872dd14610140578063313ce5671461017057806342966c681461018e575b600080fd5b6100dc61029c565b6040516100e99190610de2565b60405180910390f35b61010c60048036038101906101079190610e9d565b61032e565b6040516101199190610ef8565b60405180910390f35b61012a610351565b6040516101379190610f22565b60405180910390f35b61015a60048036038101906101559190610f3d565b61035b565b6040516101679190610ef8565b60405180910390f35b61017861038a565b6040516101859190610fac565b60405180910390f35b6101a860048036038101906101a39190610fc7565b610393565b005b6101c460048036038101906101bf9190610ff4565b6103a0565b6040516101d19190610f22565b60405180910390f35b6101e26103e8565b005b6101ec6103fc565b6040516101f99190611030565b60405180910390f35b61020a610426565b6040516102179190610de2565b60405180910390f35b61023a60048036038101906102359190610e9d565b6104b8565b6040516102479190610ef8565b60405180910390f35b61026a6004803603810190610265919061104b565b6104db565b6040516102779190610f22565b60405180910390f35b61029a60048036038101906102959190610ff4565b610562565b005b6060600380546102ab906110ba565b80601f01602080910402602001604051908101604052809291908181526020018280546102d7906110ba565b80156103245780601f106102f957610100808354040283529160200191610324565b820191906000526020600020905b81548152906001019060200180831161030757829003601f168201915b5050505050905090565b6000806103396105e5565b90506103468185856105ed565b600191505092915050565b6000600254905090565b6000806103666105e5565b90506103738582856105ff565b61037e858585610693565b60019150509392505050565b60006012905090565b61039d3382610787565b50565b60008060008373ffffffffffffffffffffffffffffffffffffffff1673ffffffffffffffffffffffffffffffffffffffff168152602001908152602001600020549050919050565b6103f0610809565b6103fa6000610890565b565b6000600560009054906101000a900473ffffffffffffffffffffffffffffffffffffffff16905090565b606060048054610435906110ba565b80601f0160208091040260200160405190810160405280929190818152602001828054610461906110ba565b80156104ae5780601f10610483576101008083540402835291602001916104ae565b820191906000526020600020905b81548152906001019060200180831161049157829003601f168201915b5050505050905090565b6000806104c36105e5565b90506104d0818585610693565b600191505092915050565b6000600160008473ffffffffffffffffffffffffffffffffffffffff1673ffffffffffffffffffffffffffffffffffffffff16815260200190815260200160002060008373ffffffffffffffffffffffffffffffffffffffff1673ffffffffffffffffffffffffffffffffffffffff16815260200190815260200160002054905092915050565b61056a610809565b600073ffffffffffffffffffffffffffffffffffffffff168173ffffffffffffffffffffffffffffffffffffffff16036105d9576040517f08c379a00000000000000000000000000000000000000000000000000000000081526004016105d09061115d565b60405180910390fd5b6105e281610890565b50565b600033905090565b6105fa8383836001610956565b505050565b600061060b84846104db565b90507fffffffffffffffffffffffffffffffffffffffffffffffffffffffffffffffff811461068d578181101561067d578281836040517ffb8f41b20000000000000000000000000000000000000000000000000000000081526004016106749392919061117d565b60405180910390fd5b61068c84848484036000610956565b5b50505050565b600073ffffffffffffffffffffffffffffffffffffffff168373ffffffffffffffffffffffffffffffffffffffff16036107055760006040517f96c6fd1e0000000000000000000000000000000000000000000000000000000081526004016106fc9190611030565b60405180910390fd5b600073ffffffffffffffffffffffffffffffffffffffff168273ffffffffffffffffffffffffffffffffffffffff16036107775760006040517fec442f0500000000000000000000000000000000000000000000000000000000815260040161076e9190611030565b60405180910390fd5b610782838383610b2d565b505050565b600073ffffffffffffffffffffffffffffffffffffffff168273ffffffffffffffffffffffffffffffffffffffff16036107f95760006040517f96c6fd1e0000000000000000000000000000000000000000000000000000000081526004016107f09190611030565b60405180910390fd5b61080582600083610b2d565b5050565b6108116105e5565b73ffffffffffffffffffffffffffffffffffffffff1661082f6103fc565b73ffffffffffffffffffffffffffffffffffffffff161461088e576108526105e5565b6040517f118cdaa70000000000000000000000000000000000000000000000000000000081526004016108859190611030565b60405180910390fd5b565b6000600560009054906101000a900473ffffffffffffffffffffffffffffffffffffffff16905081600560006101000a81548173ffffffffffffffffffffffffffffffffffffffff021916908373ffffffffffffffffffffffffffffffffffffffff1602179055508173ffffffffffffffffffffffffffffffffffffffff168173ffffffffffffffffffffffffffffffffffffffff167f8be0079c531659141344cd1fd0a4f28419497f9722a3daafe3b4186f6b6457e060405160405180910390a35050565b600073ffffffffffffffffffffffffffffffffffffffff168473ffffffffffffffffffffffffffffffffffffffff16036109c85760006040517fe602df050000000000000000000000000000000000000000000000000000000081526004016109bf9190611030565b60405180910390fd5b600073ffffffffffffffffffffffffffffffffffffffff168373ffffffffffffffffffffffffffffffffffffffff1603610a3a5760006040517f94280d62000000000000000000000000000000000000000000000000000000008152600401610a319190611030565b60405180910390fd5b81600160008673ffffffffffffffffffffffffffffffffffffffff1673ffffffffffffffffffffffffffffffffffffffff16815260200190815260200160002060008573ffffffffffffffffffffffffffffffffffffffff1673ffffffffffffffffffffffffffffffffffffffff168152602001908152602001600020819055508015610b27578273ffffffffffffffffffffffffffffffffffffffff168473ffffffffffffffffffffffffffffffffffffffff167f8c5be1e5ebec7d5bd14f71427d1e84f3dd0314c0f7b2291e5b200ac8c7c3b92584604051610b1e9190610f22565b60405180910390a35b50505050565b600073ffffffffffffffffffffffffffffffffffffffff168373ffffffffffffffffffffffffffffffffffffffff1603610b7f578060026000828254610b7391906111e3565b92505081905550610c52565b60008060008573ffffffffffffffffffffffffffffffffffffffff1673ffffffffffffffffffffffffffffffffffffffff16815260200190815260200160002054905081811015610c0b578381836040517fe450d38c000000000000000000000000000000000000000000000000000000008152600401610c029392919061117d565b60405180910390fd5b8181036000808673ffffffffffffffffffffffffffffffffffffffff1673ffffffffffffffffffffffffffffffffffffffff16815260200190815260200160002081905550505b600073ffffffffffffffffffffffffffffffffffffffff168273ffffffffffffffffffffffffffffffffffffffff1603610c9b5780600260008282540392505081905550610ce8565b806000808473ffffffffffffffffffffffffffffffffffffffff1673ffffffffffffffffffffffffffffffffffffffff168152602001908152602001600020600082825401925050819055505b8173ffffffffffffffffffffffffffffffffffffffff168373ffffffffffffffffffffffffffffffffffffffff167fddf252ad1be2c89b69c2b068fc378daa952ba7f163c4a11628f55a4df523b3ef83604051610d459190610f22565b60405180910390a3505050565b600081519050919050565b600082825260208201905092915050565b60005b83811015610d8c578082015181840152602081019050610d71565b60008484015250505050565b6000601f19601f8301169050919050565b6000610db482610d52565b610dbe8185610d5d565b9350610dce818560208601610d6e565b610dd781610d98565b840191505092915050565b60006020820190508181036000830152610dfc8184610da9565b905092915050565b600080fd5b600073ffffffffffffffffffffffffffffffffffffffff82169050919050565b6000610e3482610e09565b9050919050565b610e4481610e29565b8114610e4f57600080fd5b50565b600081359050610e6181610e3b565b92915050565b6000819050919050565b610e7a81610e67565b8114610e8557600080fd5b50565b600081359050610e9781610e71565b92915050565b60008060408385031215610eb457610eb3610e04565b5b6000610ec285828601610e52565b9250506020610ed385828601610e88565b9150509250929050565b60008115159050919050565b610ef281610edd565b82525050565b6000602082019050610f0d6000830184610ee9565b92915050565b610f1c81610e67565b82525050565b6000602082019050610f376000830184610f13565b92915050565b600080600060608486031215610f5657610f55610e04565b5b6000610f6486828701610e52565b9350506020610f7586828701610e52565b9250506040610f8686828701610e88565b9150509250925092565b600060ff82169050919050565b610fa681610f90565b82525050565b6000602082019050610fc16000830184610f9d565b92915050565b600060208284031215610fdd57610fdc610e04565b5b6000610feb84828501610e88565b91505092915050565b60006020828403121561100a57611009610e04565b5b600061101884828501610e52565b91505092915050565b61102a81610e29565b82525050565b60006020820190506110456000830184611021565b92915050565b6000806040838503121561106257611061610e04565b5b600061107085828601610e52565b925050602061108185828601610e52565b9150509250929050565b7f4e487b7100000000000000000000000000000000000000000000000000000000600052602260045260246000fd5b600060028204905060018216806110d257607f821691505b6020821081036110e5576110e461108b565b5b50919050565b7f4f776e61626c653a206e6577206f776e657220697320746865207a65726f206160008201527f6464726573730000000000000000000000000000000000000000000000000000602082015250565b6000611147602683610d5d565b9150611152826110eb565b604082019050919050565b600060208201905081810360008301526111768161113a565b9050919050565b60006060820190506111926000830186611021565b61119f6020830185610f13565b6111ac6040830184610f13565b949350505050565b7f4e487b7100000000000000000000000000000000000000000000000000000000600052601160045260246000fd5b60006111ee82610e67565b91506111f983610e67565b9250828201905080821115611211576112106111b4565b5b9291505056fea2646970667358221220338f6e4def37fd1eeaaf01c51a9df05e8d670ca699c6662db0ea06679a207da064736f6c63430008140033",
  "linkReferences": {},
  "deployedLinkReferences": {}
}